{
  "contractName": "Game",
  "abi": [
    {
      "inputs": [],
      "payable": false,
      "stateMutability": "nonpayable",
      "type": "constructor"
    },
    {
      "anonymous": false,
      "inputs": [],
      "name": "GameStarted",
      "type": "event"
    },
    {
      "anonymous": false,
      "inputs": [],
      "name": "NoWinner",
      "type": "event"
    },
    {
      "anonymous": false,
      "inputs": [
        {
          "indexed": false,
          "internalType": "string",
          "name": "name",
          "type": "string"
        },
        {
          "indexed": false,
          "internalType": "uint256",
          "name": "choice",
          "type": "uint256"
        }
      ],
      "name": "WinnerAnnounced",
      "type": "event"
    },
    {
      "constant": true,
      "inputs": [],
      "name": "owner",
      "outputs": [
        {
          "internalType": "address",
          "name": "",
          "type": "address"
        }
      ],
      "payable": false,
      "stateMutability": "view",
      "type": "function"
    },
    {
      "constant": true,
      "inputs": [],
      "name": "playerCount",
      "outputs": [
        {
          "internalType": "uint256",
          "name": "",
          "type": "uint256"
        }
      ],
      "payable": false,
      "stateMutability": "view",
      "type": "function"
    },
    {
      "constant": true,
      "inputs": [
        {
          "internalType": "uint256",
          "name": "",
          "type": "uint256"
        }
      ],
      "name": "players",
      "outputs": [
        {
          "internalType": "string",
          "name": "name",
          "type": "string"
        },
        {
          "internalType": "uint256",
          "name": "choice",
          "type": "uint256"
        },
        {
          "internalType": "address payable",
          "name": "wallet",
          "type": "address"
        }
      ],
      "payable": false,
      "stateMutability": "view",
      "type": "function"
    },
    {
      "constant": true,
      "inputs": [],
      "name": "started",
      "outputs": [
        {
          "internalType": "bool",
          "name": "",
          "type": "bool"
        }
      ],
      "payable": false,
      "stateMutability": "view",
      "type": "function"
    },
    {
      "constant": false,
      "inputs": [
        {
          "internalType": "string",
          "name": "name",
          "type": "string"
        },
        {
          "internalType": "uint256",
          "name": "choice",
          "type": "uint256"
        }
      ],
      "name": "joinGame",
      "outputs": [],
      "payable": true,
      "stateMutability": "payable",
      "type": "function"
    },
    {
      "constant": true,
      "inputs": [],
      "name": "isOwner",
      "outputs": [
        {
          "internalType": "bool",
          "name": "",
          "type": "bool"
        }
      ],
      "payable": false,
      "stateMutability": "view",
      "type": "function"
    },
    {
      "constant": false,
      "inputs": [],
      "name": "causeEvent",
      "outputs": [],
      "payable": false,
      "stateMutability": "nonpayable",
      "type": "function"
    },
    {
      "constant": false,
      "inputs": [],
      "name": "startGame",
      "outputs": [],
      "payable": false,
      "stateMutability": "nonpayable",
      "type": "function"
    }
  ],
  "bytecode": "0x6080604052600080556000600160006101000a81548160ff02191690831515021790555034801561002f57600080fd5b50336001806101000a81548173ffffffffffffffffffffffffffffffffffffffff021916908373ffffffffffffffffffffffffffffffffffffffff160217905550610bd98061007f6000396000f3fe60806040526004361061007b5760003560e01c80638f32d59b1161004e5780638f32d59b14610148578063b461149b14610177578063d65ab5f21461023c578063f71d96cb146102535761007b565b80631f2698ab14610080578063302bcc57146100af578063706dbce8146100da5780638da5cb5b146100f1575b600080fd5b34801561008c57600080fd5b50610095610341565b604051808215151515815260200191505060405180910390f35b3480156100bb57600080fd5b506100c4610354565b6040518082815260200191505060405180910390f35b3480156100e657600080fd5b506100ef61035a565b005b3480156100fd57600080fd5b50610106610388565b604051808273ffffffffffffffffffffffffffffffffffffffff1673ffffffffffffffffffffffffffffffffffffffff16815260200191505060405180910390f35b34801561015457600080fd5b5061015d6103ad565b604051808215151515815260200191505060405180910390f35b61023a6004803603604081101561018d57600080fd5b81019080803590602001906401000000008111156101aa57600080fd5b8201836020820111156101bc57600080fd5b803590602001918460018302840111640100000000831117156101de57600080fd5b91908080601f016020809104026020016040519081016040528093929190818152602001838380828437600081840152601f19601f82011690508083019250505050505050919291929080359060200190929190505050610404565b005b34801561024857600080fd5b50610251610513565b005b34801561025f57600080fd5b5061028c6004803603602081101561027657600080fd5b81019080803590602001909291905050506109e6565b60405180806020018481526020018373ffffffffffffffffffffffffffffffffffffffff1673ffffffffffffffffffffffffffffffffffffffff168152602001828103825285818151815260200191508051906020019080838360005b838110156103045780820151818401526020810190506102e9565b50505050905090810190601f1680156103315780820380516001836020036101000a031916815260200191505b5094505050505060405180910390f35b600160009054906101000a900460ff1681565b60005481565b7f762f260439bb4be3ef6e4dc2786e2e7bd187d3d80b79057d7a424fe98563e33560405160405180910390a1565b6001809054906101000a900473ffffffffffffffffffffffffffffffffffffffff1681565b60006001809054906101000a900473ffffffffffffffffffffffffffffffffffffffff1673ffffffffffffffffffffffffffffffffffffffff163373ffffffffffffffffffffffffffffffffffffffff1614905090565b670de0b6b3a7640000341480156104285750600160009054906101000a900460ff16155b80156104345750600081115b61043d57600080fd5b610445610ac8565b60405180606001604052808481526020018381526020013373ffffffffffffffffffffffffffffffffffffffff1681525090506001600080828254019250508190555080600260008054815260200190815260200160002060008201518160000190805190602001906104b9929190610aff565b506020820151816001015560408201518160020160006101000a81548173ffffffffffffffffffffffffffffffffffffffff021916908373ffffffffffffffffffffffffffffffffffffffff160217905550905050505050565b6001809054906101000a900473ffffffffffffffffffffffffffffffffffffffff1673ffffffffffffffffffffffffffffffffffffffff163373ffffffffffffffffffffffffffffffffffffffff161461056c57600080fd5b600160009054906101000a900460ff161561058657600080fd5b60008054141561059557600080fd5b60018060006101000a81548160ff0219169083151502179055507f762f260439bb4be3ef6e4dc2786e2e7bd187d3d80b79057d7a424fe98563e33560405160405180910390a1600080905060008090506000600190505b600054811161067357816002600083815260200190815260200160002060010154111561062d57600260008281526020019081526020016000206001015491505b60036000600260008481526020019081526020016000206001015481526020019081526020016000206000815480929190600101919050555080806001019150506105ec565b506000600190505b600054811161070a57600160036000600260008581526020019081526020016000206001015481526020019081526020016000205414156106fd5760008214806106da5750816002600083815260200190815260200160002060010154105b156106fc57600260008281526020019081526020016000206001015491508092505b5b808060010191505061067b565b506000600190505b600054811161076257600360006002600084815260200190815260200160002060010154815260200190815260200160002060008154809291906001900391905055508080600101915050610712565b50600082111561099357610774610ac8565b60026000848152602001908152602001600020604051806060016040529081600082018054600181600116156101000203166002900480601f01602080910402602001604051908101604052809291908181526020018280546001816001161561010002031660029004801561082b5780601f106108005761010080835404028352916020019161082b565b820191906000526020600020905b81548152906001019060200180831161080e57829003601f168201915b50505050508152602001600182015481526020016002820160009054906101000a900473ffffffffffffffffffffffffffffffffffffffff1673ffffffffffffffffffffffffffffffffffffffff1673ffffffffffffffffffffffffffffffffffffffff168152505090507fb1a01b22f51de76267702340dcbbe92d7ef8f62107b13f658efc7a051192af19816000015182602001516040518080602001838152602001828103825284818151815260200191508051906020019080838360005b838110156109075780820151818401526020810190506108ec565b50505050905090810190601f1680156109345780820380516001836020036101000a031916815260200191505b50935050505060405180910390a1806040015173ffffffffffffffffffffffffffffffffffffffff166108fc479081150290604051600060405180830381858888f1935050505015801561098c573d6000803e3d6000fd5b50506109c0565b7f8b9ae95f2188c3c8e65f290154f5b6aff8906871ef4e0a382a400e1b501e91d960405160405180910390a15b6000600160006101000a81548160ff021916908315150217905550600080819055505050565b6002602052806000526040600020600091509050806000018054600181600116156101000203166002900480601f016020809104026020016040519081016040528092919081815260200182805460018160011615610100020316600290048015610a925780601f10610a6757610100808354040283529160200191610a92565b820191906000526020600020905b815481529060010190602001808311610a7557829003601f168201915b5050505050908060010154908060020160009054906101000a900473ffffffffffffffffffffffffffffffffffffffff16905083565b60405180606001604052806060815260200160008152602001600073ffffffffffffffffffffffffffffffffffffffff1681525090565b828054600181600116156101000203166002900490600052602060002090601f016020900481019282601f10610b4057805160ff1916838001178555610b6e565b82800160010185558215610b6e579182015b82811115610b6d578251825591602001919060010190610b52565b5b509050610b7b9190610b7f565b5090565b610ba191905b80821115610b9d576000816000905550600101610b85565b5090565b9056fea265627a7a72315820efae3c986d9471a1bea0c0665ec47f0960b1b411e54275f24d55ddb4b2f68eb864736f6c63430005100032",
  "source": "pragma solidity ^0.5.16;\n\ncontract Game {\n  struct Player {\n    string name;\n    uint choice;\n    address payable wallet;\n  }\n\n  uint public playerCount = 0;\n  bool public started = false;\n  address public owner;\n  mapping (uint => Player) public players;\n  mapping (uint => uint) counter;\n\n  constructor() public {\n    owner = msg.sender;\n  }\n\n  modifier onlyOwner() {\n    require(msg.sender == owner);\n    _;\n  }\n\n  function joinGame(string memory name, uint choice) public payable {\n    require(msg.value == 1 ether && !started && choice > 0);\n    Player memory currentPlayer = Player(name, choice, msg.sender);\n    playerCount += 1;\n    players[playerCount] = currentPlayer;\n  }\n\n  event WinnerAnnounced(string name, uint choice);\n  event NoWinner();\n  event GameStarted();\n\n  function isOwner() public view returns (bool) {\n    return (msg.sender == owner);\n  }\n\n  function causeEvent() public {\n    emit GameStarted();\n  }\n\n  function startGame() public onlyOwner { \n    require(!started);\n    require(playerCount != 0);\n    started = true;\n\n    emit GameStarted();\n    \n    uint result = 0;\n    uint currentMinimum = 0;\n\n    for (uint i = 1; i <= playerCount; i++) {\n      if (players[i].choice > currentMinimum) currentMinimum = players[i].choice;\n      counter[players[i].choice]++;\n    }\n\n    for (uint i = 1; i <= playerCount; i++) {\n      if (counter[players[i].choice] == 1) {\n        if (currentMinimum == 0 || players[i].choice < currentMinimum) {\n          currentMinimum = players[i].choice;\n          result = i;\n        }\n      }\n    }\n\n    for (uint i = 1; i <= playerCount; i++) {\n      counter[players[i].choice]--;\n    }\n\n    if (result > 0) {\n      Player memory winner = players[result];\n\n      emit WinnerAnnounced(winner.name, winner.choice);\n      address(winner.wallet).transfer(address(this).balance); \n    } else {\n      emit NoWinner();\n    }\n\n    started = false;\n    playerCount = 0;\n  }\n}",
  "sourcePath": "/Users/ironsoul/development/social-final/src/contracts/Game.sol",
  "compiler": {
    "name": "solc",
    "version": "0.5.16+commit.9c3226ce.Emscripten.clang"
  },
  "schemaVersion": "3.2.2",
  "updatedAt": "2020-07-12T14:39:07.298Z",
  "networkType": "ethereum",
  "devdoc": {
    "methods": {}
  },
  "userdoc": {
    "methods": {}
  }
}