{
  "contractName": "Game",
  "abi": [
    {
      "inputs": [],
      "payable": false,
      "stateMutability": "nonpayable",
      "type": "constructor"
    },
    {
      "anonymous": false,
      "inputs": [],
      "name": "NoWinner",
      "type": "event"
    },
    {
      "anonymous": false,
      "inputs": [
        {
          "indexed": false,
          "internalType": "string",
          "name": "name",
          "type": "string"
        },
        {
          "indexed": false,
          "internalType": "uint256",
          "name": "choice",
          "type": "uint256"
        }
      ],
      "name": "WinnerAnnounced",
      "type": "event"
    },
    {
      "constant": true,
      "inputs": [],
      "name": "owner",
      "outputs": [
        {
          "internalType": "address",
          "name": "",
          "type": "address"
        }
      ],
      "payable": false,
      "stateMutability": "view",
      "type": "function"
    },
    {
      "constant": true,
      "inputs": [
        {
          "internalType": "uint256",
          "name": "",
          "type": "uint256"
        }
      ],
      "name": "players",
      "outputs": [
        {
          "internalType": "string",
          "name": "name",
          "type": "string"
        },
        {
          "internalType": "uint256",
          "name": "choice",
          "type": "uint256"
        },
        {
          "internalType": "address payable",
          "name": "wallet",
          "type": "address"
        }
      ],
      "payable": false,
      "stateMutability": "view",
      "type": "function"
    },
    {
      "constant": true,
      "inputs": [],
      "name": "started",
      "outputs": [
        {
          "internalType": "bool",
          "name": "",
          "type": "bool"
        }
      ],
      "payable": false,
      "stateMutability": "view",
      "type": "function"
    },
    {
      "constant": false,
      "inputs": [
        {
          "internalType": "string",
          "name": "name",
          "type": "string"
        },
        {
          "internalType": "uint256",
          "name": "choice",
          "type": "uint256"
        }
      ],
      "name": "joinGame",
      "outputs": [],
      "payable": true,
      "stateMutability": "payable",
      "type": "function"
    },
    {
      "constant": false,
      "inputs": [],
      "name": "startGame",
      "outputs": [],
      "payable": false,
      "stateMutability": "nonpayable",
      "type": "function"
    }
  ],
  "bytecode": "0x608060405260008060006101000a81548160ff02191690831515021790555034801561002a57600080fd5b5033600060016101000a81548173ffffffffffffffffffffffffffffffffffffffff021916908373ffffffffffffffffffffffffffffffffffffffff160217905550610bb38061007b6000396000f3fe60806040526004361061004a5760003560e01c80631f2698ab1461004f5780638da5cb5b1461007e578063b461149b146100d5578063d65ab5f21461019a578063f71d96cb146101b1575b600080fd5b34801561005b57600080fd5b5061006461029f565b604051808215151515815260200191505060405180910390f35b34801561008a57600080fd5b506100936102b1565b604051808273ffffffffffffffffffffffffffffffffffffffff1673ffffffffffffffffffffffffffffffffffffffff16815260200191505060405180910390f35b610198600480360360408110156100eb57600080fd5b810190808035906020019064010000000081111561010857600080fd5b82018360208201111561011a57600080fd5b8035906020019184600183028401116401000000008311171561013c57600080fd5b91908080601f016020809104026020016040519081016040528093929190818152602001838380828437600081840152601f19601f820116905080830192505050505050509192919290803590602001909291905050506102d7565b005b3480156101a657600080fd5b506101af6103ee565b005b3480156101bd57600080fd5b506101ea600480360360208110156101d457600080fd5b81019080803590602001909291905050506108e9565b60405180806020018481526020018373ffffffffffffffffffffffffffffffffffffffff1673ffffffffffffffffffffffffffffffffffffffff168152602001828103825285818151815260200191508051906020019080838360005b83811015610262578082015181840152602081019050610247565b50505050905090810190601f16801561028f5780820380516001836020036101000a031916815260200191505b5094505050505060405180910390f35b6000809054906101000a900460ff1681565b600060019054906101000a900473ffffffffffffffffffffffffffffffffffffffff1681565b670de0b6b3a7640000341480156102fa57506000809054906101000a900460ff16155b80156103065750600081115b61030f57600080fd5b6103176109d8565b60405180606001604052808481526020018381526020013373ffffffffffffffffffffffffffffffffffffffff168152509050600181908060018154018082558091505090600182039060005260206000209060030201600090919290919091506000820151816000019080519060200190610394929190610a0f565b506020820151816001015560408201518160020160006101000a81548173ffffffffffffffffffffffffffffffffffffffff021916908373ffffffffffffffffffffffffffffffffffffffff160217905550505050505050565b600060019054906101000a900473ffffffffffffffffffffffffffffffffffffffff1673ffffffffffffffffffffffffffffffffffffffff163373ffffffffffffffffffffffffffffffffffffffff161461044857600080fd5b6000809054906101000a900460ff1615801561046957506000600180549050115b61047257600080fd5b60016000806101000a81548160ff0219169083151502179055506000809050600080905060008090505b60018054905081101561053f5781600182815481106104b757fe5b90600052602060002090600302016001015411156104f157600181815481106104dc57fe5b90600052602060002090600302016001015491505b600260006001838154811061050257fe5b906000526020600020906003020160010154815260200190815260200160002060008154809291906001019190505550808060010191505061049c565b5060008090505b6001805490508110156105f4576001600260006001848154811061056657fe5b90600052602060002090600302016001015481526020019081526020016000205414156105e75760008214806105b9575081600182815481106105a557fe5b906000526020600020906003020160010154105b156105e657600181815481106105cb57fe5b90600052602060002090600302016001015491506001810192505b5b8080600101915050610546565b5060008090505b60018054905081101561065757600260006001838154811061061957fe5b9060005260206000209060030201600101548152602001908152602001600020600081548092919060019003919050555080806001019150506105fb565b506000821115610890576106696109d8565b6001838154811061067657fe5b9060005260206000209060030201604051806060016040529081600082018054600181600116156101000203166002900480601f0160208091040260200160405190810160405280929190818152602001828054600181600116156101000203166002900480156107285780601f106106fd57610100808354040283529160200191610728565b820191906000526020600020905b81548152906001019060200180831161070b57829003601f168201915b50505050508152602001600182015481526020016002820160009054906101000a900473ffffffffffffffffffffffffffffffffffffffff1673ffffffffffffffffffffffffffffffffffffffff1673ffffffffffffffffffffffffffffffffffffffff168152505090507fb1a01b22f51de76267702340dcbbe92d7ef8f62107b13f658efc7a051192af19816000015182602001516040518080602001838152602001828103825284818151815260200191508051906020019080838360005b838110156108045780820151818401526020810190506107e9565b50505050905090810190601f1680156108315780820380516001836020036101000a031916815260200191505b50935050505060405180910390a1806040015173ffffffffffffffffffffffffffffffffffffffff166108fc479081150290604051600060405180830381858888f19350505050158015610889573d6000803e3d6000fd5b50506108bd565b7f8b9ae95f2188c3c8e65f290154f5b6aff8906871ef4e0a382a400e1b501e91d960405160405180910390a15b600160006108cb9190610a8f565b60008060006101000a81548160ff0219169083151502179055505050565b600181815481106108f657fe5b9060005260206000209060030201600091509050806000018054600181600116156101000203166002900480601f0160208091040260200160405190810160405280929190818152602001828054600181600116156101000203166002900480156109a25780601f10610977576101008083540402835291602001916109a2565b820191906000526020600020905b81548152906001019060200180831161098557829003601f168201915b5050505050908060010154908060020160009054906101000a900473ffffffffffffffffffffffffffffffffffffffff16905083565b60405180606001604052806060815260200160008152602001600073ffffffffffffffffffffffffffffffffffffffff1681525090565b828054600181600116156101000203166002900490600052602060002090601f016020900481019282601f10610a5057805160ff1916838001178555610a7e565b82800160010185558215610a7e579182015b82811115610a7d578251825591602001919060010190610a62565b5b509050610a8b9190610ab3565b5090565b5080546000825560030290600052602060002090810190610ab09190610ad8565b50565b610ad591905b80821115610ad1576000816000905550600101610ab9565b5090565b90565b610b3391905b80821115610b2f5760008082016000610af79190610b36565b60018201600090556002820160006101000a81549073ffffffffffffffffffffffffffffffffffffffff021916905550600301610ade565b5090565b90565b50805460018160011615610100020316600290046000825580601f10610b5c5750610b7b565b601f016020900490600052602060002090810190610b7a9190610ab3565b5b5056fea265627a7a7231582099a9fb7246fdac7fc2f18dd9807174a591540e1ec70a8d5f477266962404a54b64736f6c63430005100032",
  "source": "pragma solidity ^0.5.0;\n\ncontract Game {\n  struct Player {\n    string name;\n    uint choice;\n    address payable wallet;\n  }\n\n  bool public started = false;\n  address public owner;\n  Player[] public players;\n  mapping (uint => uint) counter;\n\n  constructor() public {\n    owner = msg.sender;\n  }\n\n  modifier onlyOwner() {\n    require(msg.sender == owner);\n    _;\n  }\n\n  function joinGame(string memory name, uint choice) public payable {\n    require(msg.value == 1 ether && !started && choice > 0);\n    Player memory currentPlayer = Player(name, choice, msg.sender);\n    players.push(currentPlayer);\n  }\n\n  event WinnerAnnounced(string name, uint choice);\n  event NoWinner();\n\n  function startGame() public onlyOwner { \n    require(!started && players.length > 0);\n    started = true;\n    \n    uint result = 0;\n    uint currentMinimum = 0;\n\n    for (uint i = 0; i < players.length; i++) {\n      if (players[i].choice > currentMinimum) currentMinimum = players[i].choice;\n      counter[players[i].choice]++;\n    }\n\n    for (uint i = 0; i < players.length; i++) {\n      if (counter[players[i].choice] == 1) {\n        if (currentMinimum == 0 || players[i].choice < currentMinimum) {\n          currentMinimum = players[i].choice;\n          result = i + 1;\n        }\n      }\n    }\n\n    for (uint i = 0; i < players.length; i++) {\n      counter[players[i].choice]--;\n    }\n\n    if (result > 0) {\n      Player memory winner = players[result];\n\n      emit WinnerAnnounced(winner.name, winner.choice);\n      address(winner.wallet).transfer(address(this).balance); \n    } else {\n      emit NoWinner();\n    }\n\n    delete players;\n    started = false;\n  }\n}",
  "sourcePath": "/Users/ironsoul/development/social-final/src/contracts/Game.sol",
  "compiler": {
    "name": "solc",
    "version": "0.5.16+commit.9c3226ce.Emscripten.clang"
  },
  "schemaVersion": "3.2.2",
  "updatedAt": "2020-07-12T11:45:30.945Z",
  "devdoc": {
    "methods": {}
  },
  "userdoc": {
    "methods": {}
  }
}